S01C000031335F536572766F4D6F746F72436F6E74726F6C2E7372656344
S11300000C942A000C9434000C9434000C943400A6
S11300100C9434000C9434000C9434000C9434008C
S11300200C9434000C9434000C9434000C9434007C
S11300300C9434000C9434000C9434000C9434006C
S11300400C9434000C9434000C9434000C9434005C
S11300500C94340011241FBECFE5D8E0DEBFCDBF21
S11300600E9436000C9478000C9400008D9A8FE165
S11300709EE497BD86BD80EB94E09BBD8ABD1DBC0C
S11300801CBC82E88FBD89E18EBD80EB94E048E51D
S113009052E028E037E09BBD8ABD6FE77AE1E6E0F5
S11300A061507040E040E1F700C000005BBD4ABD14
S11300B06FE77AE1E6E061507040E040E1F700C0AC
S11300C000009BBD8ABD6FE77AE1E6E061507040B5
S11300D0E040E1F700C000003BBD2ABD6FE77AE1D4
S11300E0E6E061507040E040E1F700C00000D3CF8B
S10700F0F894FFCFAE
S9030000FC
