S00E000030385F4144432E7372656387
S11300000C942A000C943F000C943F000C943F0085
S11300100C943F000C943F000C943F000C943F0060
S11300200C943F000C943F000C943F000C943F0050
S11300300C943F000C943F000C943F000C943F0040
S11300400C943F000C943F000C943F000C943F0030
S11300500C943F0011241FBECFE5D8E0DEBFCDBF16
S113006010E0A0E6B0E0E0EBF7E002C005900D92EE
S1130070A437B107D9F70E9458000C94D6030C9406
S11300800000883080F497B18770892B87B9369A3D
S11300903699FECF84B195B1392F20E0282B87B152
S11300A0807E87B902C020E030E0822F932F08952C
S11300B087EA91E60197F1F700C0000080E487B970
S11300C083E886B90E947A0160E080E00E94C7015B
S11300D080E690E00E941D029FE72AE186E09150AD
S11300E020408040E1F700C00000F12C00E010E067
S11300F0C0E0D0E006C080E00E944100080F191F54
S1130100F3949FE19F15B8F7B801769567957295BA
S113011062956F7067277F70672780E090E00E9488
S1130120BD0220E030E040EA50E40E944B0320E0AE
S113013030E040E85AE30E944B03E62EF72E082FE6
S1130140192F802F912F0E949102C62ED12C61E08D
S113015082E00E94C70161E070E0C6010E94D601FE
S11301608CE690E00E941D0261E084E00E94C701D9
S1130170B601882777FD8095982F0E94BF029B01C6
S1130180AC016E2D7F2D802F912F0E942C0220E038
S113019030E048EC52E40E944B030E949102862F07
S11301A062E070E090E00E94D60161E087E00E9486
S11301B0C7018EE690E00E941D0287EA91E601974E
S11301C0F1F700C000006894FF24F5F88E0181E087
S11301D00E944100080F191FFA94C9F761E089E0F1
S11301E00E94C701C8010024880F991F001C880FB2
S11301F0991F001C892F902D62E070E090E00E940E
S1130200D60161E08CE00E94C70180E790E00E9483
S11302101D0287EA91E60197F1F700C000008E0104
S113022070CF882314F4AF9A01C0AF9886FF02C040
S1130230AE9A01C0AE9885FF02C0AD9A01C0AD98D8
S113024084FF02C0AC9A0895AC980895CF93C82F48
S1130250807F0E941101949A969A89EF90E0019709
S1130260F1F700C000009698949889EF90E0019708
S1130270F1F700C000008C2F8295807F0E9411014D
S1130280949A969A89EF90E00197F1F700C00000E4
S11302909698949889EF90E00197F1F700C00000D8
S11302A0CF910895CF93C82F807F0E941101969A11
S11302B089EF90E00197F1F700C00000969889EF6C
S11302C090E00197F1F700C000008C2F8295807FA9
S11302D00E941101969A89EF90E00197F1F700C00E
S11302E00000969889EF90E00197F1F700C00000B4
S11302F0CF91089585EA9EE00197F1F700C00000D0
S113030080E00E941101949895989698A49AA59AD1
S1130310A69AA79A8C9A8D9A8E9A80E30E941101CC
S1130320969A89EF90E00197F1F700C00000969843
S113033089EF90E00197F1F700C0000080E30E948C
S11303401101969A89EF90E00197F1F700C000003F
S1130350969889EF90E00197F1F700C0000080E2E1
S11303600E941101969A89EF90E00197F1F700C07D
S11303700000969889EF90E00197F1F700C0000023
S113038088E20E9452018CE00E945201089562307A
S113039031F0633031F0613029F4805C03C08C5E4D
S11303A001C08C5A80680E9452010895EF92FF9216
S11303B00F931F93CF93DF9300D000D01F92CDB73C
S11303C0DEB77B01FE01319625E0DF011D922A95FF
S11303D0E9F7009761F0FE0136962AE030E0B901B2
S11303E00E94AE038293862F972F0097C1F705E0F2
S11303F010E00E191F09053011059CF4E1E0F0E04E
S1130400EC0FFD1F0E0F1F1F7E01F6E0EF0EF11C17
S1130410D8018D918D01805D0E9426010E151F0566
S1130420B9F70F900F900F900F900F90DF91CF912D
S11304301F910F91FF90EF900895CF93DF93EC01FC
S11304408881882331F021960E94260189918111A7
S1130450FBCFDF91CF9108955058BB27AA270ED028
S1130460E0C0D1D030F0D6D020F031F49F3F11F469
S11304701EF4C6C00EF4E095E7FBBCC0E92FE2D041
S113048080F3BA17620773078407950718F071F4AD
S11304909EF5FAC00EF4E0950B2EBA2FA02D0B0199
S11304A0B90190010C01CA01A0011124FF27591BB5
S11304B099F0593F50F4503E68F11A16F040A22FBB
S11304C0232F342F4427585FF3CF4695379527952C
S11304D0A795F0405395C9F77EF41F16BA0B620B2B
S11304E0730B840BBAF09150A1F0FF0FBB1F661F72
S11304F0771F881FC2F70EC0BA0F621F731F841FB5
S113050048F4879577956795B795F7959E3F08F0DA
S1130510B3CF9395880F08F09927EE0F9795879599
S1130520089598D088F09F5790F0B92F9927B75124
S1130530A0F0D1F0660F771F881F991F1AF0BA95A3
S1130540C9F712C0B13081F09FD0B1E008959CC0CA
S1130550672F782F8827B85F39F0B93FCCF3869599
S113056077956795B395D9F73EF4909580957095F6
S113057061957F4F8F4F9F4F0895E89409C097FB73
S11305803EF490958095709561957F4F8F4F9F4F66
S11305909923A9F0F92F96E9BB279395F6958795AA
S11305A077956795B795F111F8CFFAF4BB0F11F46D
S11305B060FF1BC06F5F7F4F8F4F9F4F16C0882314
S11305C011F096E911C0772321F09EE8872F762F4A
S11305D005C0662371F096E8862F70E060E02AF08B
S11305E09A95660F771F881FDAF7880F9695879577
S11305F097F9089597F99F6780E870E060E008959F
S11306009FEF80EC089500240A9416161706180626
S11306100906089500240A94121613061406050602
S11306200895092E0394000C11F4882352F0BB0F93
S113063040F4BF2B11F460FF04C06F5F7F4F8F4FF6
S11306409F4F089557FD9058440F551F59F05F3F31
S113065071F04795880F97FB991F61F09F3F79F0E0
S113066087950895121613061406551FF2CF469562
S1130670F1DF08C0161617061806991FF1CF8695E4
S11306807105610508940895E894BB2766277727C8
S1130690CB0197F908950BD0C4CFB5DF28F0BADFAA
S11306A018F0952309F0A6CFABCF1124EECFCADF03
S11306B0A0F3959FD1F3950F50E0551F629FF00171
S11306C0729FBB27F00DB11D639FAA27F00DB11DCA
S11306D0AA1F649F6627B00DA11D661F829F222753
S11306E0B00DA11D621F739FB00DA11D621F839FDA
S11306F0A00D611D221F749F3327A00D611D231FB0
S1130700849F600D211D822F762F6A2F11249F57FD
S113071050408AF0E1F088234AF0EE0FFF1FBB1F20
S1130720661F771F881F91505040A9F79E3F5105BF
S113073070F060CFAACF5F3FECF3983EDCF3869570
S113074077956795B795F795E7959F5FC1F7FE2B6A
S1130750880F911D9695879597F9089597FB072E15
S113076016F4009407D077FD09D00E94C20307FC59
S113077005D03EF4909581959F4F089570956195AD
S11307807F4F0895AA1BBB1B51E107C0AA1FBB1FC3
S1130790A617B70710F0A61BB70B881F991F5A9509
S11307A0A9F780959095BC01CD010895F894FFCFE9
S11307B0414443204578616D706C65002E005600FD
S10707C02A430000C4
S9030000FC
