S015000030395F54494D4552305F31487A2E7372656344
S11300000C942A000C943C000C943C000C943C008E
S11300100C943C000C943C000C943C000C943C006C
S11300200C943C000C943C000C943C000C94480050
S11300300C943C000C943C000C943C000C943C004C
S11300400C943C000C943C000C943C000C943C003C
S11300500C943C0011241FBECFE5D8E0DEBFCDBF19
S113006020E0A0E6B0E001C01D92A136B207E1F79E
S11300700E943E000C9462000C9400008FEF84BB3D
S113008089B7816089BF12BE83E083BF7894FFCFB4
S11300901F920F920FB60F9211248F9380916000DC
S11300A08F5F80936000809160008D3329F485B365
S11300B0809585BB109260008F910F900FBE0F90BA
S10B00C01F901895F894FFCF7E
S9030000FC
