S01C000030335F42696E617279436F756E746572344269742E73726563AE
S11300000C942A000C9434000C9434000C943400A6
S11300100C9434000C9434000C9434000C9434008C
S11300200C9434000C9434000C9434000C9434007C
S11300300C9434000C9434000C9434000C9434006C
S11300400C9434000C9434000C9434000C9434005C
S11300500C94340011241FBECFE5D8E0DEBFCDBF21
S11300600E9436000C9463000C94000081B3837FDB
S113007081BB8FE084BB80E0829911C0E3E2F4EF9E
S11300803197F1F700C000008F30B0F78F5F95B360
S1130090907F95BB95B3282F2F70922B95BB839996
S11300A0EBCFE3E2F4EF3197F1F700C000008823CF
S11300B019F3815095B3907F95BB95B3282F2F707A
S10D00C0922B95BBD9CFF894FFCF23
S9030000FC
