:100000000C942A000C9434000C9434000C943400AA
:100010000C9434000C9434000C9434000C94340090
:100020000C9434000C9434000C9434000C94340080
:100030000C9434000C9434000C9434000C94340070
:100040000C9434000C9434000C9434000C94340060
:100050000C94340011241FBECFE5D8E0DEBFCDBF25
:100060000E9476000C949C000C94000098B3907849
:1000700098BB853039F158F48230C1F018F48130E2
:1000800069F410C08330B1F0843041F417C0873078
:1000900009F1E0F0883011F1893021F188B38F63E4
:1000A00088BB089588B3866088BB089588B38B6544
:1000B00088BB089588B38F6488BB089588B386662B
:1000C00088BB089588B38D6688BB089588B38D6713
:1000D00088BB089588B3876088BB089588B38F670D
:1000E00088BB089588B38F6688BB08958FE787BB68
:1000F00081B3837F81BB80E00E943600C0E082999B
:100100000CC083E294EF0197F1F700C00000C93002
:10011000B0F7CF5F8C2F0E9436008399F0CF83E237
:1001200094EF0197F1F700C00000CC2341F3C150D8
:0C0130008C2F0E943600E3CFF894FFCF24
:00000001FF
