S015000031305F54494D4552315F31487A2E737265634B
S11300000C942A000C9434000C9434000C943400A6
S11300100C9434000C9434000C9434000C9446007A
S11300200C9434000C9434000C9434000C9434007C
S11300300C9434000C9434000C9434000C9434006C
S11300400C9434000C9434000C9434000C9434005C
S11300500C94340011241FBECFE5D8E0DEBFCDBF21
S11300600E9436000C9455000C9400008FEF84BB62
S113007088E09DE39BBD8ABD1DBC1CBC89B7806123
S113008089BF1FBC8BE08EBD7894FFCF1F920F9267
S11300900FB60F9211248F9385B3809585BB8F91F2
S11100A00F900FBE0F901F901895F894FFCF8D
S9030000FC
