:100000000C942A000C9434000C9434000C943400AA
:100010000C9434000C9434000C9434000C94340090
:100020000C9434000C9434000C9434000C94340080
:100030000C9434000C9434000C9434000C94340070
:100040000C9434000C9434000C9434000C94340060
:100050000C94340011241FBECFE5D8E0DEBFCDBF25
:100060000E943E000C944D000C9400005F9BFECF5C
:100070008CB108955D9BFECF8CB9089510BC8CE0C7
:1000800089B9599A8AB188618AB980B5866880BD74
:0E0090000E9436000E943A00FBCFF894FFCF8A
:00000001FF
