S01C000030375F45787465726E616C496E746572727570742E7372656332
S11300000C942A000C94C9000C94E1000C943C005C
S11300100C943C000C943C000C943C000C943C006C
S11300200C943C000C943C000C943C000C943C005C
S11300300C943C000C943C000C943C000C943C004C
S11300400C943C000C943C000C943C000C943C003C
S11300500C943C0011241FBECFE5D8E0DEBFCDBF19
S113006020E0A0E6B0E001C01D92A336B207E1F79C
S11300700E947E000C94F9000C94000098B39078D0
S113008098BB853039F158F48230C1F018F48130CE
S113009069F410C08330B1F0843041F417C0873064
S11300A009F1E0F0883011F1893021F188B38F63D0
S11300B088BB089588B3866088BB089588B38B6530
S11300C088BB089588B38F6488BB089588B3866617
S11300D088BB089588B38D6688BB089588B38D67FF
S11300E088BB089588B3876088BB089588B38F67F9
S11300F088BB089588B38F6688BB08958FE787BB54
S11301008FEF84BB85B78B6085BF8BB7806C8BBF4B
S1130110809160000E943E007894CFEFC5BB2FE32E
S11301208DE093E0215080409040E1F700C0000052
S113013015BA2FE38DE093E0215080409040E1F721
S113014000C0000080916200813079F41092620056
S1130150809160000E943E002FE382E49FE02150E2
S113016080409040E1F700C0000080916100813040
S1130170A9F610926100809160000E943E002FE772
S113018084E89EE1215080409040E1F700C00000E7
S1130190C5CF1F920F920FB60F9211248F9381E057
S11301A08093620080916000893028F4809160001F
S11301B08F5F809360008F910F900FBE0F901F9000
S11301C018951F920F920FB60F9211248F9381E00E
S11301D08093610080916000882329F08091600001
S11301E08150809360008F910F900FBE0F901F90ED
S10901F01895F894FFCFFE
S9030000FC
