S01F000031325F4C45444272696768746E657373436F6E74726F6C2E7372656374
S11300000C942A000C9434000C9434000C943400A6
S11300100C9434000C9434000C9434000C9434008C
S11300200C9434000C9434000C9434000C9434007C
S11300300C9434000C9434000C9434000C9434006C
S11300400C9434000C9434000C9434000C9434005C
S11300500C94340011241FBECFE5D8E0DEBFCDBF21
S11300600E9436000C9453000C940000BB9A1CBEF2
S113007012BE8AE683BF80E094E608C08CBFE1E14B
S1130080FAE73197F1F700C000008F5F8536B0F3CF
S1130090892F8CBFE1E1FAE73197F1F700C0000046
S10D00A08150B9F7F3CFF894FFCFB5
S9030000FC
