S022000031315F536576656E5365676D656E744D756C7469706C657865642E73726563E0
S11300000C942A000C943C000C943C000C943C008E
S11300100C943C000C943C000C943C000C943C006C
S11300200C943C000C943C000C94AB000C943C00ED
S11300300C943C000C943C000C943C000C943C004C
S11300400C943C000C943C000C943C000C943C003C
S11300500C943C0011241FBECFE5D8E0DEBFCDBF19
S113006020E0A0E6B0E001C01D92A336B207E1F79C
S11300700E947C000C9491010C94000095B390783C
S113008095BB853039F158F48230C1F018F48130D1
S113009069F410C08330B1F0843041F417C0873064
S11300A009F1E0F0883011F1893011F185B3806CE9
S11300B085BB089585B3896F85BB089585B3846A2C
S11300C085BB089585B3806B85BB089585B3896925
S11300D085BB089585B3826985BB089585B382681D
S11300E085BB089585B3886F85BB0895AF9A08953D
S11300F085B3806985BB08958FEF84BB8FE081BB96
S113010082B38F6082BB8DE48CBF89B7826089BF64
S113011012BE8BE083BF789480916000909161005F
S11301208F30974250F48091600090916100019665
S1130130909361008093600004C01092610010925B
S113014060008FE996E821E0815090402040E1F77B
S113015000C00000E1CF1F920F920FB60F9211243E
S11301602F933F934F935F936F937F938F939F93BB
S1130170AF93BF93EF93FF93409160005091610060
S113018082B38F6082BB80916200813029F138F0A4
S1130190823009F448C0833009F09CC06DC0939844
S11301A09A01ADECBCEC0E948501969587959695D5
S11301B08795969587959C01220F331F880F991F69
S11301C0880F991F880F991F820F931F242F281BB4
S11301D0822F0E943E007EC092989A01ADECBCEC46
S11301E00E948501AC0156954795569547955695BD
S11301F047959A010E9485019695879596958795CE
S1130200969587959C01220F331F880F991F880F9D
S1130210991F880F991F820F931F242F281B822F49
S11302200E943E0057C091989A01369527953695BD
S11302302795ABE7B4E10E948501AC01569547953B
S11302409A01ADECBCEC0E94850196958795969534
S11302508795969587959C01220F331F880F991FC8
S1130260880F991F880F991F820F931F242F281B13
S1130270822F0E943E002EC090989A0136952795B1
S11302803695279536952795A5ECB0E20E94850111
S1130290AC01529542954F7045275F7045279A01EE
S11302A0ADECBCEC0E948501969587959695879553
S11302B0969587959C01220F331F880F991F880FED
S11302C0991F880F991F820F931F242F281B822F99
S11302D00E943E00809162008F5F843019F0809309
S11302E0620002C010926200FF91EF91BF91AF9142
S11302F09F918F917F916F915F914F913F912F913A
S11303000F900FBE0F901F901895A29FB001B39F3E
S1130310C001A39F01D0B29F700D811D1124911DB6
S10903200895F894FFCFDC
S9030000FC
