S014000031375F4453313330375254432E73726563FE
S11300000C942A000C9447000C9447000C9447006D
S11300100C9447000C9447000C9447000C94470040
S11300200C9447000C9447000C9447000C94470030
S11300300C9447000C9420020C9447000C94470045
S11300400C9447000C9447000C9447000C94470010
S11300500C94470011241FBECFE5D8E0DEBFCDBF0E
S113006010E0A0E6B0E0E0E8F8E002C005900D92F0
S1130070AC3BB107D9F720E0ACEBB0E001C01D9276
S1130080A33CB207E1F70E94A7000C943E040C9431
S113009000005D9BFECF8CB90895CF93DF93EC01F4
S11300A08881882331F021960E9449008991811129
S11300B0FBCFDF91CF9108951F93CF93DF9380916E
S11300C0BD008435F1F4D091BF00C091C0006091AF
S11300D0C1008091BE00813011F4D06201C0DF7D87
S11300E080E00E947C026C2F81E00E947C026D2FD4
S11300F0606482E00E947C0280E690E00E944D00F1
S113010022C08434E1F41091BF00D091C000C091AA
S1130110C1006091BE0083E00E947C02612F84E0F4
S11301200E947C026D2F85E00E947C026C2F86E089
S11301300E947C0280E690E00E944D0004C085E6A7
S113014090E00E944D00DF91CF911F910895CF93CD
S1130150DF93CDB7DEB728970FB6F894DEBF0FBE96
S1130160CDBF83E294EF0197F1F700C0000010BC0B
S11301708CE089B9599A8AB188698AB980B5866848
S113018080BD0E94A1020E94600360E082E00E94A0
S1130190B1038DE690E00E9407049FE32DE083E025
S11301A0915020408040E1F700C000000E94AD0360
S11301B0BE016F5F7F4F80E00E944702811109C03A
S11301C060E082E00E94B10388E790E00E940704A7
S11301D0FFCF69816F77698380E00E947C0281117F
S11301E009C060E082E00E94B10388E790E00E94C9
S11301F00704FFCFBE016C5F7F4F82E00E9447027D
S1130200811109C060E082E00E94B10388E790E0B8
S11302100E940704FFCF6C81606480E00E947C022E
S1130220811109C060E082E00E94B10388E790E098
S11302300E940704FFCF78948EE790E00E944D005F
S1130240BE016E5F7F4F80E00E944702BE016D5F7A
S11302507F4F81E00E944702BE016C5F7F4F82E0C6
S11302600E944702BE01695F7F4F83E00E944702FC
S1130270BE016B5F7F4F84E00E944702BE016A5F4C
S11302807F4F85E00E944702BE01685F7F4F86E092
S11302900E9447021C818A81982F907796959695A3
S11302A09695292F220F220F920F8F70980F9A8301
S11302B08B81982F9077969596959695292F220F56
S11302C0220F920F8F70980F9B8314FB882780F95D
S11302D0880F982F990F990F890F912F9F70890F6D
S11302E08C838D81982F9073969596959695292F4A
S11302F0220F220F920F8F70980F9D838E8184FBA3
S1130300992790F9990F292F220F220F920F8F709E
S1130310980F9E838885982F92959F70990F292F07
S1130320220F220F920F8F70980F988760E082E05F
S11303300E94B10362E070E08C8190E00E94C003EF
S11303408DE890E00E94070462E070E08B8190E009
S11303500E94C0038DE890E00E94070462E070E010
S11303608A8190E00E94C00315FF05C08FE890E0E9
S11303700E94070404C083E990E00E94070461E03E
S113038082E00E94B10362E070E08D8190E00E94FF
S1130390C00387E990E00E94070462E070E08E8168
S11303A090E00E94C00387E990E00E94070462E0A5
S11303B070E0888590E00E94C0038F81877084304C
S11303C0E1F030F4823079F098F4813049F506C0D8
S11303D08630E9F0B8F0873019F51EC089E990E05D
S11303E00E9407041DC08EE990E00E94070418C013
S11303F083EA90E00E94070413C088EA90E00E9418
S113040007040EC08DEA90E00E94070409C082EB45
S113041090E00E94070404C087EB90E00E94070468
S11304208091C200882329F00E945C001092C200CF
S1130430579A83E294EF0197F1F700C0000000CFD0
S11304401F920F920FB60F9211248F939F93EF93E5
S1130450FF935F9B13C08091BC009CB1E82FF0E038
S1130460E354FF4F90838F5F8093BC00853031F459
S113047057981092BC0081E08093C200FF91EF91E5
S11304809F918F910F900FBE0F901F9018951F93FF
S1130490CF93DF93182FEB010E94A8028823E9F081
S11304A080ED0E94C0028823D1F0812F0E94C002F7
S11304B08823B9F00E94A8028823A9F081ED0E9444
S11304C0C002882391F060E0CE010E94D902882303
S11304D071F00E94BA0281E00BC080E009C080E0A4
S11304E007C080E005C080E003C080E001C080E078
S11304F0DF91CF911F910895CF93DF93C82FD62F0B
S11305000E94A802882399F080ED0E94C0028823EB
S113051081F08C2F0E94C002882369F08D2F0E94E5
S1130520C002882351F00E94BA0281E007C080E033
S113053005C080E003C080E001C080E0DF91CF917E
S113054008958EE180B9099A86B7846086BF0895BC
S113055084EA86BF06B607FEFDCF81B1887F883066
S113056039F091B1987F81E0903119F080E00895DD
S113057081E0089584E986BF06B604FCFDCF0895A2
S113058083B984E886BF06B607FEFDCF81B1887FB4
S1130590883159F081B1887F883249F091B1987FD0
S11305A081E0903429F080E0089581E0089581E0AD
S11305B00895662321F026B7206426BF03C026B71A
S11305C02F7B26BF26B7206826BF06B607FEFDCFC1
S11305D021B1287F283521F021B1287F203529F445
S11305E023B1FC01208381E0089580E008958823ED
S11305F014F4AF9A01C0AF9886FF02C0AE9A01C04E
S1130600AE9885FF02C0AD9A01C0AD9884FF02C0C8
S1130610AC9A0895AC980895CF93C82F807F0E9418
S1130620F702949A969A89EF90E00197F1F700C047
S113063000009698949889EF90E00197F1F700C034
S113064000008C2F8295807F0E94F702949A969ADC
S113065089EF90E00197F1F700C000009698949814
S113066089EF90E00197F1F700C00000CF91089561
S1130670CF93C82F807F0E94F702969A89EF90E06B
S11306800197F1F700C00000969889EF90E0019778
S1130690F1F700C000008C2F8295807F0E94F70242
S11306A0969A89EF90E00197F1F700C000009698C0
S11306B089EF90E00197F1F700C00000CF91089511
S11306C085EA9EE00197F1F700C0000080E00E94F7
S11306D0F702949895989698A49AA59AA69AA79A98
S11306E08C9A8D9A8E9A80E30E94F702969A89EFEB
S11306F090E00197F1F700C00000969889EF90E030
S11307000197F1F700C0000080E30E94F702969A77
S113071089EF90E00197F1F700C00000969889EF07
S113072090E00197F1F700C0000080E20E94F70218
S1130730969A89EF90E00197F1F700C0000096982F
S113074089EF90E00197F1F700C0000088E20E9471
S113075038038CE00E943803089581E00E94380336
S11307600895623031F0633031F0613029F4805CF7
S113077003C08C5E01C08C5A80680E9438030895BF
S1130780EF92FF920F931F93CF93DF9300D000D08B
S11307901F92CDB7DEB77B01FE01319625E0DF0164
S11307A01D922A95E9F7009761F0FE0136962AE03A
S11307B030E0B9010E9416048293862F972F009788
S11307C0C1F705E010E00E191F09053011059CF46E
S11307D0E1E0F0E0EC0FFD1F0E0F1F1F7E01F6E0BD
S11307E0EF0EF11CD8018D918D01805D0E940C03E8
S11307F00E151F05B9F70F900F900F900F900F90E3
S1130800DF91CF911F910F91FF90EF900895CF93B7
S1130810DF93EC018881882331F021960E940C0338
S113082089918111FBCFDF91CF91089597FB072E1A
S113083016F4009407D077FD09D00E942A0407FC1F
S113084005D03EF4909581959F4F089570956195DC
S11308507F4F0895AA1BBB1B51E107C0AA1FBB1FF2
S1130860A617B70710F0A61BB70B881F991F5A9538
S1130870A9F780959095BC01CD010895F894FFCF18
S11308804F4B0D0A004572726F720D0A00445331CA
S113089033303720525443004572726F72004865FA
S11308A06C6C6F20576F726C64210D0A003A002043
S11308B0504D0020414D002F002046726900205306
S11308C06174002053756E00204D6F6E00205475C6
S10F08D065002057656400205468750022
S9030000FC
