:100000000C942A000C9447000C9447000C94470071
:100010000C9447000C9447000C9447000C94470044
:100020000C9447000C9447000C9447000C94470034
:100030000C9447000C949B000C9447000C944700D0
:100040000C9447000C9447000C9447000C94470014
:100050000C94470011241FBECFE5D8E0DEBFCDBF12
:1000600010E0A0E6B0E0E8EAF1E002C005900D92F1
:10007000A038B107D9F720E0A0E8B0E001C01D9298
:10008000A538B207E1F70E945C000C94D2000C94F2
:1000900000005D9BFECF8CB90895CF93DF93EC01F8
:1000A0008881882331F021960E944900899181112D
:1000B000FBCFDF91CF91089584B3836084BB10BCE4
:1000C0008CE089B9599A8AB188698AB980B58668FD
:1000D00080BD789480E690E00E944D00FFCF809133
:1000E00081008C3419F580918200813361F4809114
:1000F0008400813311F4A89A01C0A8988FE690E09B
:100100000E944D000895823361F480918400813310
:1001100011F4A99A01C0A9988FE690E00E944D00C1
:10012000089584E790E00E944D0008958AE790E0EA
:100130000E944D0008951F920F920FB60F92112446
:100140002F933F934F935F936F937F938F939F93DF
:10015000AF93BF93EF93FF935F9B13C08091800099
:100160009CB1E82FF0E0EF57FF4F90838F5F8093B3
:100170008000843031F457980E946F001092800004
:10018000579AFF91EF91BF91AF919F918F917F917E
:100190006F915F914F913F912F910F900FBE0F90F4
:0801A0001F901895F894FFCFA1
:1001A80048656C6C6F20576F726C64210D0A004FA4
:1001B8004B0D0A004530320D0A004530310D0A005A
:00000001FF
