S01A000030365F4B65797061644D61747269783478342E7372656392
S11300000C942A000C943F000C943F000C943F0085
S11300100C943F000C943F000C943F000C943F0060
S11300200C943F000C943F000C943F000C943F0050
S11300300C943F000C943F000C943F000C943F0040
S11300400C943F000C943F000C943F000C943F0030
S11300500C943F0011241FBECFE5D8E0DEBFCDBF16
S113006010E0A0E6B0E0E6E0F4E002C005900D92F6
S1130070AE37B107D9F70E9441000C9401020C94E9
S1130080000087EA91E60197F1F700C000001ABA70
S11300908BB38F608BBB0E94230160E082E00E94DF
S11300A0740180E690E00E94CA019FE72AE186E09D
S11300B0915020408040E1F700C000000E94700190
S11300C060E080E00E9474018EE690E00E94CA0124
S11300D061E082E00E94740182E790E00E94CA011C
S11300E000E010E0C0E8D0E06894EE24E1F80F2EC0
S11300F0F3E0DF2EF02D8BB38F608BBB9801822F42
S11301009AB31ABA9AB3AE01022E02C05595479516
S11301100A94E2F7492B4ABBCB9B0CC0CA9B06C08E
S1130120C99B06C0C8990FC09D2D05C091E003C0AE
S11301309E2D01C090E0F92EFF0CFF0CF80E9FEFEE
S1130140F91207C010C02F5F3F4F24303105B9F6B4
S11301500AC061E08CE00E94740162E070E08F2DBF
S113016090E00E94830187EA91E60197F1F700C0CD
S11301700000C1CF882314F4AF9A01C0AF9886FF62
S113018002C0AE9A01C0AE9885FF02C0AD9A01C00C
S1130190AD9884FF02C0AC9A0895AC980895CF93AB
S11301A0C82F807F0E94BA00949A969A89EF90E0B3
S11301B00197F1F700C000009698949889EF90E0B9
S11301C00197F1F700C000008C2F8295807F0E9478
S11301D0BA00949A969A89EF90E00197F1F700C0DB
S11301E000009698949889EF90E00197F1F700C089
S11301F00000CF910895CF93C82F807F0E94BA004A
S1130200969A89EF90E00197F1F700C00000969864
S113021089EF90E00197F1F700C000008C2F8295E0
S1130220807F0E94BA00969A89EF90E00197F1F7D7
S113023000C00000969889EF90E00197F1F700C0A4
S11302400000CF91089585EA9EE00197F1F700C080
S1130250000080E00E94BA00949895989698A49A19
S1130260A59AA69AA79A8C9A8D9A8E9A80E30E9450
S1130270BA00969A89EF90E00197F1F700C0000068
S1130280969889EF90E00197F1F700C0000080E3B1
S11302900E94BA00969A89EF90E00197F1F700C0A6
S11302A00000969889EF90E00197F1F700C00000F4
S11302B080E20E94BA00969A89EF90E00197F1F7E4
S11302C000C00000969889EF90E00197F1F700C014
S11302D0000088E20E94FB008CE00E94FB0008956D
S11302E081E00E94FB000895623031F0633031F008
S11302F0613029F4805C03C08C5E01C08C5A806834
S11303000E94FB000895EF92FF920F931F93CF93E7
S1130310DF9300D000D01F92CDB7DEB77B01FE0182
S1130320319625E0DF011D922A95E9F7009761F0E7
S1130330FE0136962AE030E0B9010E94D901829389
S1130340862F972F0097C1F705E010E00E191F09BB
S1130350053011059CF4E1E0F0E0EC0FFD1F0E0FF9
S11303601F1F7E01F6E0EF0EF11CD8018D918D0167
S1130370805D0E94CF000E151F05B9F70F900F90F6
S11303800F900F900F90DF91CF911F910F91FF90DD
S1130390EF900895CF93DF93EC018881882331F0A7
S11303A021960E94CF0089918111FBCFDF91CF91DB
S11303B0089597FB072E16F4009407D077FD09D013
S11303C00E94ED0107FC05D03EF4909581959F4F66
S11303D00895709561957F4F0895AA1BBB1B51E149
S11303E007C0AA1FBB1FA617B70710F0A61BB70BA1
S11303F0881F991F5A95A9F780959095BC01CD0146
S10904000895F894FFCFFB
S11304064D6174726978204B6579706164004B653F
S1110416790050726573736564203D20000008
S9030000FC
